{
  "_format": "hh-sol-artifact-1",
  "contractName": "Forwarder",
  "sourceName": "contracts/Forwarder.sol",
  "abi": [
    {
      "inputs": [
        {
          "internalType": "address",
          "name": "_admin",
          "type": "address"
        }
      ],
      "stateMutability": "nonpayable",
      "type": "constructor"
    },
    {
      "anonymous": false,
      "inputs": [
        {
          "indexed": true,
          "internalType": "address",
          "name": "from",
          "type": "address"
        },
        {
          "indexed": false,
          "internalType": "uint256",
          "name": "amount",
          "type": "uint256"
        },
        {
          "indexed": false,
          "internalType": "uint256",
          "name": "timestamp",
          "type": "uint256"
        }
      ],
      "name": "PaymentReceived",
      "type": "event"
    },
    {
      "inputs": [],
      "name": "admin",
      "outputs": [
        {
          "internalType": "address",
          "name": "",
          "type": "address"
        }
      ],
      "stateMutability": "view",
      "type": "function"
    },
    {
      "inputs": [],
      "name": "getAddress",
      "outputs": [
        {
          "internalType": "address",
          "name": "",
          "type": "address"
        }
      ],
      "stateMutability": "view",
      "type": "function"
    },
    {
      "stateMutability": "payable",
      "type": "receive"
    }
  ],
  "bytecode": "0x60a060405234801561001057600080fd5b50604051610496380380610496833981810160405281019061003291906100cf565b8073ffffffffffffffffffffffffffffffffffffffff1660808173ffffffffffffffffffffffffffffffffffffffff1681525050506100fc565b600080fd5b600073ffffffffffffffffffffffffffffffffffffffff82169050919050565b600061009c82610071565b9050919050565b6100ac81610091565b81146100b757600080fd5b50565b6000815190506100c9816100a3565b92915050565b6000602082840312156100e5576100e461006c565b5b60006100f3848285016100ba565b91505092915050565b60805161037961011d60003960008181603f01526101c001526103796000f3fe60806040526004361061002d5760003560e01c806338cc483114610160578063f851a4401461018b5761015b565b3661015b5760003411156101595760007f000000000000000000000000000000000000000000000000000000000000000073ffffffffffffffffffffffffffffffffffffffff163460405161008190610213565b60006040518083038185875af1925050503d80600081146100be576040519150601f19603f3d011682016040523d82523d6000602084013e6100c3565b606091505b5050905080610107576040517f08c379a00000000000000000000000000000000000000000000000000000000081526004016100fe90610285565b60405180910390fd5b3373ffffffffffffffffffffffffffffffffffffffff167f5677b5d4cf976ac32defbd95a6a5aaf0d1fee450a11fc26f3c11aae6e6c33d06344260405161014f9291906102be565b60405180910390a2505b005b600080fd5b34801561016c57600080fd5b506101756101b6565b6040516101829190610328565b60405180910390f35b34801561019757600080fd5b506101a06101be565b6040516101ad9190610328565b60405180910390f35b600030905090565b7f000000000000000000000000000000000000000000000000000000000000000081565b600081905092915050565b50565b60006101fd6000836101e2565b9150610208826101ed565b600082019050919050565b600061021e826101f0565b9150819050919050565b600082825260208201905092915050565b7f466f7277617264206661696c6564000000000000000000000000000000000000600082015250565b600061026f600e83610228565b915061027a82610239565b602082019050919050565b6000602082019050818103600083015261029e81610262565b9050919050565b6000819050919050565b6102b8816102a5565b82525050565b60006040820190506102d360008301856102af565b6102e060208301846102af565b9392505050565b600073ffffffffffffffffffffffffffffffffffffffff82169050919050565b6000610312826102e7565b9050919050565b61032281610307565b82525050565b600060208201905061033d6000830184610319565b9291505056fea264697066735822122058112cbc4cbfbc9da7ec916eb52e484f94256a3638e626ee756b8c80ac4892d764736f6c63430008130033",
  "linkReferences": {},
  "deployedLinkReferences": {}
}