{
  "_format": "hh-sol-artifact-1",
  "contractName": "Factory",
  "sourceName": "contracts/Factory.sol",
  "abi": [
    {
      "inputs": [
        {
          "internalType": "address",
          "name": "_admin",
          "type": "address"
        }
      ],
      "stateMutability": "nonpayable",
      "type": "constructor"
    },
    {
      "anonymous": false,
      "inputs": [
        {
          "indexed": true,
          "internalType": "bytes32",
          "name": "salt",
          "type": "bytes32"
        },
        {
          "indexed": false,
          "internalType": "address",
          "name": "forwarder",
          "type": "address"
        }
      ],
      "name": "ForwarderCreated",
      "type": "event"
    },
    {
      "inputs": [],
      "name": "admin",
      "outputs": [
        {
          "internalType": "address",
          "name": "",
          "type": "address"
        }
      ],
      "stateMutability": "view",
      "type": "function"
    },
    {
      "inputs": [
        {
          "internalType": "bytes32",
          "name": "salt",
          "type": "bytes32"
        }
      ],
      "name": "createForwarder",
      "outputs": [
        {
          "internalType": "address",
          "name": "",
          "type": "address"
        }
      ],
      "stateMutability": "nonpayable",
      "type": "function"
    },
    {
      "inputs": [
        {
          "internalType": "bytes32",
          "name": "",
          "type": "bytes32"
        }
      ],
      "name": "forwarders",
      "outputs": [
        {
          "internalType": "address",
          "name": "",
          "type": "address"
        }
      ],
      "stateMutability": "view",
      "type": "function"
    },
    {
      "inputs": [
        {
          "internalType": "bytes32",
          "name": "salt",
          "type": "bytes32"
        }
      ],
      "name": "getForwarder",
      "outputs": [
        {
          "internalType": "address",
          "name": "",
          "type": "address"
        }
      ],
      "stateMutability": "view",
      "type": "function"
    },
    {
      "inputs": [
        {
          "internalType": "bytes32",
          "name": "salt",
          "type": "bytes32"
        }
      ],
      "name": "predictAddress",
      "outputs": [
        {
          "internalType": "address",
          "name": "",
          "type": "address"
        }
      ],
      "stateMutability": "view",
      "type": "function"
    }
  ],
  "bytecode": "0x60a060405234801561001057600080fd5b50604051610e1d380380610e1d833981810160405281019061003291906100cf565b8073ffffffffffffffffffffffffffffffffffffffff1660808173ffffffffffffffffffffffffffffffffffffffff1681525050506100fc565b600080fd5b600073ffffffffffffffffffffffffffffffffffffffff82169050919050565b600061009c82610071565b9050919050565b6100ac81610091565b81146100b757600080fd5b50565b6000815190506100c9816100a3565b92915050565b6000602082840312156100e5576100e461006c565b5b60006100f3848285016100ba565b91505092915050565b608051610cf8610125600039600081816102040152818161040c01526104b70152610cf86000f3fe608060405234801561001057600080fd5b50600436106100575760003560e01c8063244b76bc1461005c5780634b65bd5f1461008c578063783c1f90146100bc5780639c76b654146100ec578063f851a4401461011c575b600080fd5b61007660048036038101906100719190610521565b61013a565b604051610083919061058f565b60405180910390f35b6100a660048036038101906100a19190610521565b610374565b6040516100b3919061058f565b60405180910390f35b6100d660048036038101906100d19190610521565b6103a7565b6040516100e3919061058f565b60405180910390f35b61010660048036038101906101019190610521565b6103e3565b604051610113919061058f565b60405180910390f35b6101246104b5565b604051610131919061058f565b60405180910390f35b60008073ffffffffffffffffffffffffffffffffffffffff1660008084815260200190815260200160002060009054906101000a900473ffffffffffffffffffffffffffffffffffffffff1673ffffffffffffffffffffffffffffffffffffffff16146101dc576040517f08c379a00000000000000000000000000000000000000000000000000000000081526004016101d390610607565b60405180910390fd5b6000604051806020016101ee906104d9565b6020820181038252601f19601f820116604052507f0000000000000000000000000000000000000000000000000000000000000000604051602001610233919061058f565b604051602081830303815290604052604051602001610253929190610698565b60405160208183030381529060405290506000838251602084016000f59050600073ffffffffffffffffffffffffffffffffffffffff168173ffffffffffffffffffffffffffffffffffffffff16036102e1576040517f08c379a00000000000000000000000000000000000000000000000000000000081526004016102d890610708565b60405180910390fd5b8060008086815260200190815260200160002060006101000a81548173ffffffffffffffffffffffffffffffffffffffff021916908373ffffffffffffffffffffffffffffffffffffffff160217905550837fdf2f53fe70283d41138b5af80c3979ff3c43d78221a71e18751de9fcae718b1682604051610362919061058f565b60405180910390a28092505050919050565b60006020528060005260406000206000915054906101000a900473ffffffffffffffffffffffffffffffffffffffff1681565b600080600083815260200190815260200160002060009054906101000a900473ffffffffffffffffffffffffffffffffffffffff169050919050565b600080604051806020016103f6906104d9565b6020820181038252601f19601f820116604052507f000000000000000000000000000000000000000000000000000000000000000060405160200161043b919061058f565b60405160208183030381529060405260405160200161045b929190610698565b6040516020818303038152906040529050600060ff60f81b3085848051906020012060405160200161049094939291906107de565b6040516020818303038152906040528051906020012090508060001c92505050919050565b7f000000000000000000000000000000000000000000000000000000000000000081565b6104968061082d83390190565b600080fd5b6000819050919050565b6104fe816104eb565b811461050957600080fd5b50565b60008135905061051b816104f5565b92915050565b600060208284031215610537576105366104e6565b5b60006105458482850161050c565b91505092915050565b600073ffffffffffffffffffffffffffffffffffffffff82169050919050565b60006105798261054e565b9050919050565b6105898161056e565b82525050565b60006020820190506105a46000830184610580565b92915050565b600082825260208201905092915050565b7f466f7277617264657220616c7265616479206578697374730000000000000000600082015250565b60006105f16018836105aa565b91506105fc826105bb565b602082019050919050565b60006020820190508181036000830152610620816105e4565b9050919050565b600081519050919050565b600081905092915050565b60005b8381101561065b578082015181840152602081019050610640565b60008484015250505050565b600061067282610627565b61067c8185610632565b935061068c81856020860161063d565b80840191505092915050565b60006106a48285610667565b91506106b08284610667565b91508190509392505050565b7f4661696c656420746f2063726561746520666f72776172646572000000000000600082015250565b60006106f2601a836105aa565b91506106fd826106bc565b602082019050919050565b60006020820190508181036000830152610721816106e5565b9050919050565b60007fff0000000000000000000000000000000000000000000000000000000000000082169050919050565b6000819050919050565b61076f61076a82610728565b610754565b82525050565b60008160601b9050919050565b600061078d82610775565b9050919050565b600061079f82610782565b9050919050565b6107b76107b28261056e565b610794565b82525050565b6000819050919050565b6107d86107d3826104eb565b6107bd565b82525050565b60006107ea828761075e565b6001820191506107fa82866107a6565b60148201915061080a82856107c7565b60208201915061081a82846107c7565b6020820191508190509594505050505056fe60a060405234801561001057600080fd5b50604051610496380380610496833981810160405281019061003291906100cf565b8073ffffffffffffffffffffffffffffffffffffffff1660808173ffffffffffffffffffffffffffffffffffffffff1681525050506100fc565b600080fd5b600073ffffffffffffffffffffffffffffffffffffffff82169050919050565b600061009c82610071565b9050919050565b6100ac81610091565b81146100b757600080fd5b50565b6000815190506100c9816100a3565b92915050565b6000602082840312156100e5576100e461006c565b5b60006100f3848285016100ba565b91505092915050565b60805161037961011d60003960008181603f01526101c001526103796000f3fe60806040526004361061002d5760003560e01c806338cc483114610160578063f851a4401461018b5761015b565b3661015b5760003411156101595760007f000000000000000000000000000000000000000000000000000000000000000073ffffffffffffffffffffffffffffffffffffffff163460405161008190610213565b60006040518083038185875af1925050503d80600081146100be576040519150601f19603f3d011682016040523d82523d6000602084013e6100c3565b606091505b5050905080610107576040517f08c379a00000000000000000000000000000000000000000000000000000000081526004016100fe90610285565b60405180910390fd5b3373ffffffffffffffffffffffffffffffffffffffff167f5677b5d4cf976ac32defbd95a6a5aaf0d1fee450a11fc26f3c11aae6e6c33d06344260405161014f9291906102be565b60405180910390a2505b005b600080fd5b34801561016c57600080fd5b506101756101b6565b6040516101829190610328565b60405180910390f35b34801561019757600080fd5b506101a06101be565b6040516101ad9190610328565b60405180910390f35b600030905090565b7f000000000000000000000000000000000000000000000000000000000000000081565b600081905092915050565b50565b60006101fd6000836101e2565b9150610208826101ed565b600082019050919050565b600061021e826101f0565b9150819050919050565b600082825260208201905092915050565b7f466f7277617264206661696c6564000000000000000000000000000000000000600082015250565b600061026f600e83610228565b915061027a82610239565b602082019050919050565b6000602082019050818103600083015261029e81610262565b9050919050565b6000819050919050565b6102b8816102a5565b82525050565b60006040820190506102d360008301856102af565b6102e060208301846102af565b9392505050565b600073ffffffffffffffffffffffffffffffffffffffff82169050919050565b6000610312826102e7565b9050919050565b61032281610307565b82525050565b600060208201905061033d6000830184610319565b9291505056fea264697066735822122058112cbc4cbfbc9da7ec916eb52e484f94256a3638e626ee756b8c80ac4892d764736f6c63430008130033a2646970667358221220460ef775afce5d4fee9572f78cbf66a852f50ea89043bbda9ce12660ee0e897664736f6c63430008130033",
  "linkReferences": {},
  "deployedLinkReferences": {}
}